:100000000C9446000C9465000C9465000C946500FB
:100010000C9465000C9465000C9465000C946500CC
:100020000C9465000C9465000C9465000C946500BC
:100030000C9465000C94E3000C9465000C9465002E
:100040000C9465000C9465000C9465000C9465009C
:100050000C9465000C9465000C9465000C9465008C
:100060000C9465000C9465000C9465000C9465007C
:100070000C9465000C9465000C9465000C9465006C
:100080000C9465000C9465000C94650011241FBE4F
:10009000CFEFD0E4DEBFCDBF11E0A0E0B1E0ECEEE9
:1000A000F4E000E00BBF02C007900D92A631B1074B
:1000B000D9F721E0A6E1B1E001C01D92AE34B2074C
:1000C000E1F70E94BC010C9474020C940000CF93E1
:1000D000C82F8A3051F09091C00095FFFCCFC0939B
:1000E000C60090E080E0CF9108958DE00E94670007
:1000F000F2CF282F392F2115310529F02130310574
:1001000039F031F0089584E080934D0121E030E032
:1001100080914D01843030F4880F80934D01822FFF
:10012000932F089581E080934D01822F932F08959E
:10013000282F392F2115310531F02130310561F09B
:1001400090E080E0089580911C0190914D01892BF1
:1001500090911601892B85B980911C0190914D01D8
:10016000892B90911601892B85B981E090E0089543
:100170008BE0809381008DE790E0909389008093DD
:10018000880082E080936F001092850010928400B6
:100190008091000190910101A0910201B0910301B1
:1001A0008093170190931801A0931901B0931A013D
:1001B0008FB780688FBF089510928100089581E005
:1001C00080931B0108951F920F920FB60F92112476
:1001D0000BB60F922F933F934F935F936F937F9341
:1001E0008F939F93AF93BF93EF93FF9380911701EA
:1001F00090911801A0911901B0911A010197A109DC
:10020000B1098093170190931801A0931901B0933D
:100210001A01892B8A2B8B2B99F0FF91EF91BF91BB
:10022000AF919F918F917F916F915F914F913F918E
:100230002F910F900BBE0F900FBE0F901F9018952F
:100240000E94DF008091000190910101A0910201C4
:10025000B09103018093170190931801A0931901A5
:10026000B0931A01DACF609300017093010180937B
:10027000020190930301609317017093180180931A
:10028000190190931A010895442349F021E030E0C8
:1002900002C0220F331F6A95E2F7822B089521E0F6
:1002A00030E002C0220F331F6A95E2F720958223C7
:1002B0000895282F392F21153105A1F0213031055E
:1002C00031F480B190E08095909582FD0BC041E0C3
:1002D00064E0809116010E9444018093160190E031
:1002E00080E0089540E064E0809116010E9444019E
:1002F0008093160181E090E00895282F392F213056
:100300003105D9F02230310569F0232B19F090E046
:1003100080E0089541E063E080911C010E94440167
:1003200080931C0141E063E080911C010E94440124
:1003300080931C0181E090E0089540E063E08091AB
:100340001C010E94440180931C0182E090E008950A
:100350000F931F93E82FF92F7183608322833383D8
:10036000448355831682178210861186138702876D
:10037000CF011F910F910895CDB7DEB72C970FB61F
:10038000F894DEBF0FBECDBF8FEF84B915B809E575
:1003900011E022E030E040E050E070E060E0CE01AB
:1003A00001960E94A8018CE0FE013196ADE1B1E01A
:1003B00001900D928A95E1F709E710E02CE231E017
:1003C00040E050E070E060E0CE0101960E94A8019C
:1003D0008CE0FE013196A9E2B1E001900D928A9580
:1003E000E1F70DE711E028EE33E040E050E070E087
:1003F00060E0CE0101960E94A8018CE0FE013196DA
:10040000A5E3B1E001900D928A95E1F708E910E0CB
:1004100022E030E040E050E070E060E0CE01019684
:100420000E94A8018CE0FE013196A1E4B1E00190A8
:100430000D928A95E1F762E070E080E090E00E9422
:1004400033010E94B8004EC0F701EE0FFF1FDF011D
:10045000AE0DBF1DAA0FBB1FAA0FBB1FA35EBE4FD1
:10046000FD0146815781608571854E5F5F4F6F4FFB
:100470007F4F16964D935D936D937C9319971F5FF5
:10048000143050F5E12EF12CF701EE0FFF1FEE0DA9
:10049000FF1DEE0FFF1FEE0FFF1FE35EFE4F4681B5
:1004A00057816085718582819381A481B5814817C8
:1004B00059076A077B0740F26F01DF010284F38569
:1004C000E02D8D919C910995F60191838083168290
:1004D000178210861186B8CF80911B018823E1F323
:0C04E00010921B0110E0CCCFF894FFCF6D
:1004EC000100000000000002000000006700000096
:0604FC00000002000000F8
:00000001FF
