:100000000C9446000C9465000C9465000C946500FB
:100010000C9465000C9465000C9465000C946500CC
:100020000C9465000C9465000C9465000C946500BC
:100030000C9465000C94E3000C9465000C9465002E
:100040000C9465000C9465000C9465000C9465009C
:100050000C9465000C9465000C9465000C9465008C
:100060000C9465000C9465000C9465000C9465007C
:100070000C9465000C9465000C9465000C9465006C
:100080000C9465000C9465000C94650011241FBE4F
:10009000CFEFD0E4DEBFCDBF11E0A0E0B1E0E0E300
:1000A000F7E000E00BBF02C007900D92A631B10748
:1000B000D9F721E0A6E1B1E001C01D92A435B20755
:1000C000E1F70E94C1020C9496030C940000CF93B8
:1000D000C82F8A3051F09091C00095FFFCCFC0939B
:1000E000C60090E080E0CF9108958DE00E94670007
:1000F000F2CF282F392F2115310529F02130310574
:1001000039F031F0089584E08093530121E030E02C
:1001100080915301843030F4880F80935301822FF3
:10012000932F089581E080935301822F932F089598
:10013000282F392F2115310531F02130310561F09B
:1001400090E080E008958091200190915301892BE7
:1001500090911A01892B85B98091200190915301CA
:10016000892B90911A01892B85B981E090E008953F
:100170008BE0809381008DE790E0909389008093DD
:10018000880082E080936F001092850010928400B6
:100190008091040190910501A0910601B0910701A1
:1001A00080931B0190931C01A0931D01B0931E012D
:1001B0008FB780688FBF089510928100089581E005
:1001C00080931F0108951F920F920FB60F92112472
:1001D0000BB60F922F933F934F935F936F937F9341
:1001E0008F939F93AF93BF93EF93FF9380911B01E6
:1001F00090911C01A0911D01B0911E010197A109D0
:10020000B10980931B0190931C01A0931D01B09331
:100210001E01892B8A2B8B2B99F0FF91EF91BF91B7
:10022000AF919F918F917F916F915F914F913F918E
:100230002F910F900BBE0F900FBE0F901F9018952F
:100240000E94DF008091040190910501A0910601B8
:10025000B091070180931B0190931C01A0931D0195
:10026000B0931E01DACF609304017093050180936F
:1002700006019093070160931B0170931C0180930A
:100280001D0190931E010895442349F021E030E0C0
:1002900002C0220F331F6A95E2F7822B089521E0F6
:1002A00030E002C0220F331F6A95E2F720958223C7
:1002B0000895282F392F21303105D9F0223031050A
:1002C00069F0232B19F090E080E0089541E063E0AD
:1002D000809120010E9444018093200141E063E06D
:1002E000809120010E9444018093200181E090E0F0
:1002F000089540E063E0809120010E9444018093D2
:10030000200182E090E00895282F392F2230310516
:1003100009F449C0E4F42115310591F1213031058A
:1003200099F480B190E08095909587709927049713
:1003300079F541E064E0809120010E9444018093BE
:100340001A0182E090E0089590E080E00895233063
:10035000310599F480B190E0809590958770992748
:10036000049739F340E064E0809120010E94440149
:1003700080931A0181E090E0089590E080E0089574
:100380001092160110921701109218011092190183
:1003900040E064E0809120010E94440180931A01B2
:1003A00083E090E0089580B190E08095909587700B
:1003B0009927049769F7D6CF0F931F93E82FF92F4A
:1003C000718360832283338344835583168217822B
:1003D0001086118613870287CF011F910F91089510
:1003E000209100018091210190912201823091059C
:1003F00009F45CC0A8F4009769F1019709F06CC09A
:1004000080B190E08095909587709927019709F4C5
:1004100046C083E090E0909322018093210121C0A7
:10042000039709F059C080B190E08095909587704E
:100430009927019721F180B190E080959095877080
:100440009927029721F183E090E090932201809315
:10045000210107C083E090E0909322018093210165
:1004600030E080912101909122018230910509F4C0
:1004700054C083309105A9F10197A9F1089581E055
:1004800090E0909322018093210131E0EACF82E055
:1004900090E0909322018093210131E0E2CF81E04E
:1004A00090E09093220180932101DBCF80B190E016
:1004B0008095909587709927029739F083E090E0B6
:1004C0009093220180932101CCCF82E090E0909321
:1004D000220180932101C5CF1092220110922101A7
:1004E000C0CF18B8089580B190E08095909587703E
:1004F0009927019719F6332309F22F5F822F90E095
:10050000B0E0A0E08093000190930101A09302016C
:10051000B093030180E488B9089580B190E080959C
:100520009095877099270297D1F080910001909162
:100530000101A0910201B09103010297A105B1054B
:1005400008F09CCF81E090E0A0E0B0E08093000153
:1005500090930101A0930201B09303018FCF332345
:1005600021F32150822F90E0B0E0A0E080930001C1
:1005700090930101A0930201B093030180E288B936
:10058000D4CFCDB7DEB760970FB6F894DEBF0FBEFD
:10059000CDBF8FEF87B918B884B915B811B882B933
:1005A000109222011092210109E710E02CE231E0C3
:1005B00040E050E070E060E0CE0101960E94DC0176
:1005C0008CE0FE013196A3E2B1E001900D928A9594
:1005D000E1F709E511E028EE33E040E050E070E09B
:1005E00060E0CE0101960E94DC018CE0FE013196B4
:1005F000AFE2B1E001900D928A95E1F704E811E0D5
:1006000021E030E040E050E070E060E0CE01019693
:100610000E94DC018CE0FE013196ABE3B1E0019079
:100620000D928A95E1F708E910E021E030E040E022
:1006300050E070E060E0CE0101960E94DC018CE0A9
:10064000FE013196A7E4B1E001900D928A95E1F7A1
:1006500057C0F701EE0FFF1FDF01AE0DBF1DAA0F40
:10066000BB1FAA0FBB1FAD5DBE4FFD014681578169
:1006700060857185C0900001D0900101E090020179
:10068000F09003014C0D5D1D6E1D7F1D16964D9360
:100690005D936D937C9319971F5F143058F5E12E8D
:1006A000F12CF701EE0FFF1FEE0DFF1DEE0FFF1FE8
:1006B000EE0FFF1FED5DFE4F46815781608571850E
:1006C00082819381A481B581481759076A077B0706
:1006D00008F4BFCFDF016F010284F385E02D8D9117
:1006E0009C910995F601918380831682178210866A
:1006F0001186AFCF80911F018823E1F310921F0173
:100700000E94F0018091000190910101A0910201ED
:10071000B09103018D879E87AF87B88BBC01CD0157
:100720000E9433010E94B80010E0B7CFF894FFCFC9
:1007300002000000010000000000000200000000B4
:060740006700000000004C
:00000001FF
