:100000000C9446000C9465000C9465000C946500FB
:100010000C9465000C9465000C9465000C946500CC
:100020000C9465000C9465000C9465000C946500BC
:100030000C9465000C94DD000C9465000C94650034
:100040000C9465000C9465000C9465000C9465009C
:100050000C9465000C9465000C9465000C9465008C
:100060000C9465000C9465000C9465000C9465007C
:100070000C9465000C9465000C9465000C9465006C
:100080000C9465000C9465000C94650011241FBE4F
:10009000CFEFD0E4DEBFCDBF11E0A0E0B1E0EEE6EF
:1000A000F4E000E00BBF02C007900D92A631B1074B
:1000B000D9F721E0A6E1B1E001C01D92A134B20759
:1000C000E1F70E9492010C9435020C940000CF934A
:1000D000C82F8A3051F09091C00095FFFCCFC0939B
:1000E000C60090E080E0CF9108958DE00E94670007
:1000F000F2CF282F392F2115310529F02130310574
:1001000039F031F0089584E08093400121E030E03F
:1001100080914001843030F4880F80934001822F19
:10012000932F089581E080934001822F932F0895AB
:10013000282F392F2115310531F02130310549F0B3
:1001400090E080E0089580911B0190914001892BFF
:1001500085B980911B0190914001892B85B981E07F
:1001600090E008958BE0809381008DE790E090937C
:1001700089008093880082E080936F001092850050
:10018000109284008091000190910101A0910201E0
:10019000B09103018093160190931701A093180169
:1001A000B09319018FB780688FBF089510928100B6
:1001B000089581E080931A0108951F920F920FB65F
:1001C0000F9211240BB60F922F933F934F935F938F
:1001D0006F937F938F939F93AF93BF93EF93FF930F
:1001E0008091160190911701A0911801B091190109
:1001F0000197A109B1098093160190931701A0936B
:100200001801B0931901892B8A2B8B2B99F0FF9140
:10021000EF91BF91AF919F918F917F916F915F917E
:100220004F913F912F910F900BBE0F900FBE0F90EB
:100230001F9018950E94D9008091000190910101B2
:10024000A0910201B09103018093160190931701D0
:10025000A0931801B0931901DACF60930001709355
:100260000101809302019093030160931601709342
:10027000170180931801909319010895442349F0C0
:1002800021E030E002C0220F331F6A95E2F7822B93
:10029000089521E030E002C0220F331F6A95E2F793
:1002A000209582230895282F392F21303105D9F048
:1002B0002230310569F0232B19F090E080E0089599
:1002C00041E063E080911B010E943E0180931B018D
:1002D00041E063E080911B010E943E0180931B017D
:1002E00081E090E0089540E063E080911B010E946E
:1002F0003E0180931B0182E090E008950F931F93CD
:10030000E82FF92F718360832283338344835583DD
:10031000168217821086118613870287CF011F91DC
:100320000F910895CDB7DEB72C970FB6F894DEBFC6
:100330000FBECDBF8FEF84B915B809E710E02CE2EE
:1003400031E040E050E070E060E0CE0101960E94B4
:100350007E018CE0FE013196ACE1B1E001900D929E
:100360008A95E1F703E511E028EE33E040E050E044
:1003700070E060E0CE0101960E947E018CE0FE01FB
:100380003196A8E2B1E001900D928A95E1F708E973
:1003900010E02CE231E040E050E070E060E0CE019F
:1003A00001960E947E018CE0FE013196A4E3B1E04B
:1003B00001900D928A95E1F764E670E080E090E0AC
:1003C0000E942D010E94B2004EC0F701EE0FFF1FE8
:1003D000DF01AE0DBF1DAA0FBB1FAA0FBB1FA45E7E
:1003E000BE4FFD0146815781608571854C595F4F35
:1003F0006F4F7F4F16964D935D936D937C93199736
:100400001F5F133050F5E12EF12CF701EE0FFF1FA7
:10041000EE0DFF1DEE0FFF1FEE0FFF1FE45EFE4F00
:10042000468157816085718582819381A481B581E0
:10043000481759076A077B0740F26F01DF01028402
:10044000F385E02D8D919C910995F6019183808330
:100450001682178210861186B8CF80911A018823E0
:0E046000E1F310921A0110E0CCCFF894FFCF18
:10046E000100000000000002000000006700000014
:06047E0000006400000014
:00000001FF
